{
  "contractName": "ConvertLib",
  "abi": [
    {
      "constant": false,
      "inputs": [
        {
          "name": "amount",
          "type": "uint256"
        },
        {
          "name": "conversionRate",
          "type": "uint256"
        }
      ],
      "name": "convert",
      "outputs": [
        {
          "name": "convertedAmount",
          "type": "uint256"
        }
      ],
      "payable": false,
      "stateMutability": "nonpayable",
      "type": "function"
    }
  ],
  "bytecode": "0x60606040523415600e57600080fd5b60898061001c6000396000f300606060405263ffffffff7c010000000000000000000000000000000000000000000000000000000060003504166396e4ee3d8114603b57600080fd5b60476004356024356059565b60405190815260200160405180910390f35b02905600a165627a7a72305820b571d9482095b69c64755cfd0385b435bf1fcdf5a7f726da5c7cbdb0b3a3be7f0029",
  "source": "pragma solidity ^0.4.2;\n\nlibrary ConvertLib{\n\tfunction convert(uint amount,uint conversionRate) public returns (uint convertedAmount)\n\t{\n\t\treturn amount * conversionRate;\n\t}\n}\n",
  "sourcePath": "/Users/avandepoel/code/drew/skadoosh/contracts/ConvertLib.sol",
  "schemaVersion": "1.0.0",
  "updatedAt": "2017-11-02T03:28:35.007Z"
}