{
  "contractName": "Payroll",
  "abi": [
    {
      "constant": true,
      "inputs": [],
      "name": "creator",
      "outputs": [
        {
          "name": "",
          "type": "address"
        }
      ],
      "payable": false,
      "stateMutability": "view",
      "type": "function"
    },
    {
      "constant": false,
      "inputs": [
        {
          "name": "_hours",
          "type": "uint256"
        }
      ],
      "name": "logHours",
      "outputs": [
        {
          "name": "",
          "type": "uint256"
        }
      ],
      "payable": false,
      "stateMutability": "nonpayable",
      "type": "function"
    },
    {
      "constant": true,
      "inputs": [],
      "name": "getBalance",
      "outputs": [
        {
          "name": "",
          "type": "uint256"
        }
      ],
      "payable": false,
      "stateMutability": "view",
      "type": "function"
    },
    {
      "constant": false,
      "inputs": [
        {
          "name": "addr",
          "type": "address"
        }
      ],
      "name": "payEmployee",
      "outputs": [
        {
          "name": "",
          "type": "uint256"
        }
      ],
      "payable": false,
      "stateMutability": "nonpayable",
      "type": "function"
    },
    {
      "constant": false,
      "inputs": [
        {
          "name": "addr",
          "type": "address"
        },
        {
          "name": "_rate",
          "type": "uint256"
        }
      ],
      "name": "setRate",
      "outputs": [
        {
          "name": "",
          "type": "uint256"
        }
      ],
      "payable": false,
      "stateMutability": "nonpayable",
      "type": "function"
    },
    {
      "constant": true,
      "inputs": [
        {
          "name": "addr",
          "type": "address"
        }
      ],
      "name": "getRate",
      "outputs": [
        {
          "name": "",
          "type": "uint256"
        }
      ],
      "payable": false,
      "stateMutability": "view",
      "type": "function"
    },
    {
      "constant": false,
      "inputs": [
        {
          "name": "addr",
          "type": "address"
        },
        {
          "name": "_rate",
          "type": "uint256"
        }
      ],
      "name": "newEmployee",
      "outputs": [
        {
          "name": "",
          "type": "address"
        }
      ],
      "payable": false,
      "stateMutability": "nonpayable",
      "type": "function"
    },
    {
      "constant": true,
      "inputs": [],
      "name": "contractName",
      "outputs": [
        {
          "name": "",
          "type": "bytes32"
        }
      ],
      "payable": false,
      "stateMutability": "view",
      "type": "function"
    },
    {
      "constant": true,
      "inputs": [
        {
          "name": "addr",
          "type": "address"
        }
      ],
      "name": "getHours",
      "outputs": [
        {
          "name": "",
          "type": "uint256"
        }
      ],
      "payable": false,
      "stateMutability": "view",
      "type": "function"
    },
    {
      "constant": false,
      "inputs": [],
      "name": "deposit",
      "outputs": [],
      "payable": true,
      "stateMutability": "payable",
      "type": "function"
    },
    {
      "inputs": [
        {
          "name": "_name",
          "type": "bytes32"
        }
      ],
      "payable": false,
      "stateMutability": "nonpayable",
      "type": "constructor"
    }
  ],
  "bytecode": "0x6060604052341561000f57600080fd5b6040516020806104f18339810160405280805160008054600160a060020a033316600160a060020a0319909116179055600155505061049e806100536000396000f300606060405236156100a15763ffffffff7c010000000000000000000000000000000000000000000000000000000060003504166302d05d3f81146100a6578063069771e0146100d557806312065fe0146100fd5780631f50ad16146101105780632bdb70971461012f57806337cef79114610151578063562baa171461017057806375d0c0dc14610192578063aecba7f2146101a5578063d0e30db0146101c4575b600080fd5b34156100b157600080fd5b6100b96101ce565b604051600160a060020a03909116815260200160405180910390f35b34156100e057600080fd5b6100eb6004356101dd565b60405190815260200160405180910390f35b341561010857600080fd5b6100eb610238565b341561011b57600080fd5b6100eb600160a060020a0360043516610246565b341561013a57600080fd5b6100eb600160a060020a0360043516602435610305565b341561015c57600080fd5b6100eb600160a060020a0360043516610350565b341561017b57600080fd5b6100b9600160a060020a036004351660243561036b565b341561019d57600080fd5b6100eb610412565b34156101b057600080fd5b6100eb600160a060020a0360043516610418565b6101cc610436565b005b600054600160a060020a031681565b6000338183116101ec57600080fd5b600160a060020a0381166000908152600260205260409020600101546102129084610438565b600160a060020a0382166000908152600260205260409020600101819055915050919050565b600160a060020a0330163190565b60008054819033600160a060020a0390811691161461026457600080fd5b600160a060020a0383166000908152600260205260408120600101541161028a57600080fd5b600160a060020a038316600090815260026020526040902080546001909101546102b4919061044e565b9050600160a060020a03301631819010156102ce57600080fd5b600160a060020a03831681156108fc0282604051600060405180830381858888f1935050505015156102ff57600080fd5b92915050565b6000805433600160a060020a0390811691161461032157600080fd5b600082101561032f57600080fd5b50600160a060020a0391909116600090815260026020526040902081905590565b600160a060020a031660009081526002602052604090205490565b6000805433600160a060020a0390811691161461038757600080fd5b600160a060020a0383166000908152600260208190526040909120015460ff16156103b157600080fd5b6060604051908101604090815283825260006020808401829052600183850152600160a060020a0387168252600290522081518155602082015181600101556040820151600291909101805460ff1916911515919091179055509192915050565b60015481565b600160a060020a031660009081526002602052604090206001015490565b565b60008282018381101561044757fe5b9392505050565b600082820283158061046a575082848281151561046757fe5b04145b151561044757fe00a165627a7a72305820a7c6f8c56ea9cebb33fe4c10828929c0226a758e955bfa6f6e62e3edbb66bdfd0029",
  "source": "pragma solidity ^0.4.11;\n\nimport './math/SafeMath.sol';\n\ncontract Payroll {\n\n  struct Employee {\n    uint _rate;\n    uint _hours;\n    bool created;\n  }\n  address public creator;\n  bytes32 public contractName;\n  mapping(address => Employee) employees;\n\n  modifier ifOwner() {\n    if (msg.sender != creator) revert();\n    _;\n  }\n  \n  /*\n  * constructor that sets the owner of the contract\n  */\n\n  function Payroll(bytes32 _name) {\n    creator = msg.sender;\n    contractName = _name;\n  }\n  \n  function deposit() public payable {\n\n  }\n\n  /*\n  * getters\n  */\n\n  function getBalance() public constant returns(uint) {\n    return this.balance;\n  }\n\n  function getHours(address addr) public constant returns(uint) {\n    return employees[addr]._hours;\n  }\n\n  function getRate(address addr) public constant returns(uint) {\n    return employees[addr]._rate;\n  }\n\n  /*\n  * setters\n  */\n\n  function setRate(address addr, uint _rate) public ifOwner returns(uint) {\n    require(_rate >= 0);\n\n    employees[addr]._rate = _rate;\n\n    return employees[addr]._rate;\n  }\n\n  function logHours(uint _hours) public returns(uint) {\n    address addr = msg.sender;\n\n    require(_hours > 0);\n\n    employees[addr]._hours = SafeMath.add(employees[addr]._hours, _hours);\n\n    return employees[addr]._hours;\n  }\n\n  /*\n  * functions for owner to update employee information\n  */\n\n  function newEmployee(address addr, uint _rate) public ifOwner returns(address) {\n    if(employees[addr].created) throw;\n\n    employees[addr] = Employee(_rate, 0, true);\n    return addr;\n  }\n\n  function payEmployee(address addr) public ifOwner returns(uint) {\n    require(employees[addr]._hours > 0);\n    uint paymentAmount = SafeMath.mul(employees[addr]._rate, employees[addr]._hours);\n\n    require(this.balance >= paymentAmount);\n    addr.transfer(paymentAmount);\n\n    return paymentAmount;\n  }\n\n}\n",
  "sourcePath": "/Users/avandepoel/code/drew/skadoosh/contracts/Payroll.sol",
  "schemaVersion": "1.0.0",
  "updatedAt": "2017-11-04T20:18:20.482Z"
}