{
  "contractName": "Payroll",
  "abi": [
    {
      "constant": true,
      "inputs": [],
      "name": "creator",
      "outputs": [
        {
          "name": "",
          "type": "address"
        }
      ],
      "payable": false,
      "stateMutability": "view",
      "type": "function"
    },
    {
      "constant": false,
      "inputs": [
        {
          "name": "_hours",
          "type": "uint256"
        }
      ],
      "name": "logHours",
      "outputs": [
        {
          "name": "",
          "type": "uint256"
        }
      ],
      "payable": false,
      "stateMutability": "nonpayable",
      "type": "function"
    },
    {
      "constant": false,
      "inputs": [
        {
          "name": "addr",
          "type": "address"
        },
        {
          "name": "_rate",
          "type": "uint256"
        }
      ],
      "name": "setRate",
      "outputs": [
        {
          "name": "",
          "type": "uint256"
        }
      ],
      "payable": false,
      "stateMutability": "nonpayable",
      "type": "function"
    },
    {
      "constant": true,
      "inputs": [],
      "name": "viewFunds",
      "outputs": [
        {
          "name": "",
          "type": "uint256"
        }
      ],
      "payable": false,
      "stateMutability": "view",
      "type": "function"
    },
    {
      "constant": true,
      "inputs": [
        {
          "name": "addr",
          "type": "address"
        }
      ],
      "name": "getRate",
      "outputs": [
        {
          "name": "",
          "type": "uint256"
        }
      ],
      "payable": false,
      "stateMutability": "view",
      "type": "function"
    },
    {
      "constant": false,
      "inputs": [
        {
          "name": "addr",
          "type": "address"
        },
        {
          "name": "_rate",
          "type": "uint256"
        }
      ],
      "name": "newEmployee",
      "outputs": [
        {
          "name": "",
          "type": "address"
        }
      ],
      "payable": false,
      "stateMutability": "nonpayable",
      "type": "function"
    },
    {
      "constant": true,
      "inputs": [],
      "name": "contractName",
      "outputs": [
        {
          "name": "",
          "type": "bytes32"
        }
      ],
      "payable": false,
      "stateMutability": "view",
      "type": "function"
    },
    {
      "constant": true,
      "inputs": [
        {
          "name": "addr",
          "type": "address"
        }
      ],
      "name": "getHours",
      "outputs": [
        {
          "name": "",
          "type": "uint256"
        }
      ],
      "payable": false,
      "stateMutability": "view",
      "type": "function"
    },
    {
      "constant": false,
      "inputs": [
        {
          "name": "addr",
          "type": "address"
        }
      ],
      "name": "payContractor",
      "outputs": [
        {
          "name": "",
          "type": "uint256"
        }
      ],
      "payable": false,
      "stateMutability": "nonpayable",
      "type": "function"
    },
    {
      "constant": false,
      "inputs": [],
      "name": "depositFunds",
      "outputs": [],
      "payable": true,
      "stateMutability": "payable",
      "type": "function"
    },
    {
      "inputs": [
        {
          "name": "_name",
          "type": "bytes32"
        }
      ],
      "payable": false,
      "stateMutability": "nonpayable",
      "type": "constructor"
    }
  ],
  "bytecode": "0x6060604052341561000f57600080fd5b6040516020806104988339810160405280805160008054600160a060020a033316600160a060020a03199091161790556001555050610445806100536000396000f300606060405236156100a15763ffffffff7c010000000000000000000000000000000000000000000000000000000060003504166302d05d3f81146100a6578063069771e0146100d55780632bdb7097146100fd578063379b24951461011f57806337cef79114610132578063562baa171461015157806375d0c0dc14610173578063aecba7f214610186578063c3318487146101a5578063e2c41dbc146101c4575b600080fd5b34156100b157600080fd5b6100b96101ce565b604051600160a060020a03909116815260200160405180910390f35b34156100e057600080fd5b6100eb6004356101dd565b60405190815260200160405180910390f35b341561010857600080fd5b6100eb600160a060020a0360043516602435610238565b341561012a57600080fd5b6100eb610283565b341561013d57600080fd5b6100eb600160a060020a0360043516610291565b341561015c57600080fd5b6100b9600160a060020a03600435166024356102ac565b341561017e57600080fd5b6100eb61030a565b341561019157600080fd5b6100eb600160a060020a0360043516610310565b34156101b057600080fd5b6100eb600160a060020a036004351661032e565b6101cc6103dd565b005b600054600160a060020a031681565b6000338183116101ec57600080fd5b600160a060020a03811660009081526002602052604090206001015461021290846103df565b600160a060020a0382166000908152600260205260409020600101819055915050919050565b6000805433600160a060020a0390811691161461025457600080fd5b600082101561026257600080fd5b50600160a060020a0391909116600090815260026020526040902081905590565b600160a060020a0330163190565b600160a060020a031660009081526002602052604090205490565b6000805433600160a060020a039081169116146102c857600080fd5b60408051908101604090815283825260006020808401829052600160a060020a0387168252600290522081518155602082015160019190910155509192915050565b60015481565b600160a060020a031660009081526002602052604090206001015490565b6000805481908190819033600160a060020a0390811691161461035057600080fd5b600160a060020a038516600090815260026020526040812080546001909101549094509250821161038057600080fd5b61038a83836103f5565b9050600160a060020a03301631819010156103a457600080fd5b600160a060020a03851681156108fc0282604051600060405180830381858888f1935050505015156103d557600080fd5b949350505050565b565b6000828201838110156103ee57fe5b9392505050565b6000828202831580610411575082848281151561040e57fe5b04145b15156103ee57fe00a165627a7a7230582034b3fe75c0453e3957b8bbefdf0d895beed266789b1689e082449cc6b4d8404d0029",
  "source": "pragma solidity ^0.4.11;\n\nimport './math/SafeMath.sol';\n\ncontract Payroll {\n\n  struct Employee {\n    uint _rate;\n    uint _hours;\n  }\n  address public creator;\n  bytes32 public contractName;\n  mapping(address => Employee) employees;\n\n  modifier ifOwner() {\n    if (msg.sender != creator) revert();\n    _;\n  }\n  \n  /*\n  * constructor that sets the owner of the contract\n  */\n\n  function Payroll(bytes32 _name) {\n    creator = msg.sender;\n    contractName = _name;\n  }\n  \n  function depositFunds() public payable {\n\n  }\n\n  /*\n  * getters\n  */\n\n  function viewFunds() public constant returns(uint) {\n    return this.balance;\n  }\n\n  function getHours(address addr) public constant returns(uint) {\n    return employees[addr]._hours;\n  }\n\n  function getRate(address addr) public constant returns(uint) {\n    return employees[addr]._rate;\n  }\n\n  /*\n  * setters\n  */\n\n  function setRate(address addr, uint _rate) public ifOwner returns(uint) {\n    require(_rate >= 0);\n\n    employees[addr]._rate = _rate;\n\n    return employees[addr]._rate;\n  }\n\n  function logHours(uint _hours) public returns(uint) {\n    address addr = msg.sender;\n\n    require(_hours > 0);\n\n    employees[addr]._hours = SafeMath.add(employees[addr]._hours, _hours);\n\n    return employees[addr]._hours;\n  }\n\n  /*\n  * functions for owner to update employee information\n  */\n\n  function newEmployee(address addr, uint _rate) public ifOwner returns(address) {\n    employees[addr] = Employee(_rate, 0);\n    return addr;\n  }\n\n  function payContractor(address addr) public ifOwner returns(uint) {\n    uint _rate = employees[addr]._rate;\n    uint _hours = employees[addr]._hours;\n\n    require(_hours > 0);\n    uint paymentAmount = SafeMath.mul(_rate, _hours);\n\n    require(this.balance >= paymentAmount);\n    addr.transfer(paymentAmount);\n\n    return paymentAmount;\n  }\n\n}\n",
  "sourcePath": "/Users/avandepoel/code/drew/skadoosh/contracts/Payroll.sol",
  "schemaVersion": "1.0.0",
  "updatedAt": "2017-11-01T16:59:38.898Z"
}